:020000021000EC
:10001800370180001301C11F1307000D13071700D4
:100028009300000C2320E100832701009387170029
:10003800232EF1FE0327C1FF232CE1FE130181FCCF
:10004800232A1102232811022326E1021304810323
:10005800930784FC2320F4FE9307C4FCB70702022D
:10006800938727202324F102B707030393873730A8
:100078002314F102B7070404938747402304F102CD
:10008800834781028357810283278102130000007E
:10009800130000001300000013000000130000000C
:1000A80013000000130000001300000013000000FC
:1000B80013000000130000001300000013000000EC
:1000C800130000001300000013000000EF004012AE
:1000D8006F0000006FF0DFFF130101F8232001001B
:1000E8002322110023242100232631002328410044
:1000F800232A5100232C6100232E71002320810222
:10010800232291022324A1022326B1022328C1021B
:10011800232AD102232CE102232EF10223200105F8
:1001280023221105232421052326310523284105EF
:10013800232A5105232C6105232E710523208107CD
:10014800232291072324A1072326B1072328C107C7
:10015800232AD107232CE107232EF1077325203406
:10016800F325103413060100EF0080350320010049
:10017800832041008321C100032201018322410120
:10018800032381018323C101032401028324410243
:10019800032581028325C102032601038326410327
:1001A800032781038327C10303280104832841040B
:1001B800032981048329C104032A0105832A4105EF
:1001C800032B8105832BC105032C0106832C4106D3
:1001D800032D8106832DC106032E0107832E4107B7
:1001E800032F8107832FC1071301010873002030F3
:1001F800130101FC232E1102232C8102232A9102D0
:1002080013040104930744FC2320F4FE930784FCA1
:10021800232EF4FC9307C4FC232CF4FC832704FE50
:100228001307500023A0E7008327C4FD130760FFCE
:1002380023A0E700832704FE03A707008327C4FD44
:1002480083A707003307F740832784FD23A0E7002F
:10025800B707100093871700232AF4FC1305100032
:10026800EF0000122328A4FCB7F7FA021386070848
:10027800B727000093850758032504FDEF000014F5
:10028800930460089300400873A0443073B0403072
:10029800832744FD1307600823A0E700930560083F
:1002A800032544FDEF00C00A930760FF2326F4FEF0
:1002B8006F0000018327C4FE938717002326F4FEEE
:1002C8000327C4FEB7A707009387F711E3D4E7FE17
:1002D80093055004032544FDEF008007232404FE02
:1002E8006F000001832784FE938717002324F4FE00
:1002F800032784FEB7B70A009387F7E5E3D4E7FE40
:1003080093056007032544FDEF008004232204FEC3
:100318006F000001832744FE938717002322F4FE11
:10032800032744FEB7370C009387F74FE3D4E7FE63
:100338009305300E032544FDEF008001B707010047
:100348009385075C032504FDEF0040106FF0DFF58F
:10035800130101FF2326810013040101232AA4FEAF
:100368002328B4FE832744FF032704FF23A0E700C4
:10037800130000000324C10013010101678000007D
:10038800130101FF2326810013040101232AA4FE7F
:10039800032744FF930710006318F700B7071000FE
:1003A800938707106F0080009307000013850700EC
:1003B8000324C1001301010167800000130181FEBD
:1003C800232A810013048101232AA4FE2328B4FED2
:1003D8002326C4FE832744FF9387C7001307B00171
:1003E80023A0E70013000000032441011301810149
:1003F80067800000130101FF232681001304010117
:10040800232AA4FE832744FF83A7470013850700F8
:100418000324C1001301010167800000130101FFDB
:100428002326810013040101232AA4FE2328B4FEF5
:10043800832744FF032704FF23A0E70013000000DD
:100448000324C1001301010167800000130181FE2C
:10045800232A110023288100130481012326A4FEE6
:100468002324B4FE232A04FE6F00C002832744FF1E
:10047800032784FEB307F70083C7070093850700A7
:100488000325C4FEEFF09FF9832744FF93871700E5
:10049800232AF4FE832744FF032784FEB307F700CB
:1004A80083C70700E39407FC130000001300000053
:1004B80083204101032401011301810167800000A9
:1004C800130181FE232A810013048101232AA4FE3B
:1004D8002328B4FE2326C4FE130000000324410190
:1004E8001301810167800000130181FE232A810026
:1004F800130481012326A4FE2324B4FE232A04FE28
:10050800232804FE232A04FE6F000002032704FFA9
:10051800832784FEB307F7002328F4FE832744FFCC
:1005280093871700232AF4FE032744FF8327C4FE7A
:10053800E34EF7FC832704FF1385070003244101DA
:100548001301810167800000130181FE232A8100C5
:10055800130481012326A4FE2324B4FE232A04FEC7
:10056800232804FE832784FE639607009307000070
:100578006F0080038327C4FE232AF4FE6F00000265
:10058800832704FF938717002328F4FE032744FFDB
:10059800832784FEB307F740232AF4FE832744FF0A
:1005A800E340F0FE832704FF13850700032441017D
:0805B8001301810167800000BE
:1005C00041554B2D562073617973204869696969DB
:0505D00069210D0A0085
:0400000310000018D1
:00000001FF
