:020000021000EC
:10001800370180001301C11F1307000D13071700D4
:100028009300000C2320E100832701009387170029
:10003800232EF1FE0327C1FF232CE1FE130181FCCF
:10004800232A1102232811022326E1021304810323
:10005800930784FC2320F4FE9307C4FC13000000DC
:10006800130000001300000013000000130000003C
:10007800130000001300000013000000130000002C
:10008800130000001300000013000000130000001C
:10009800130000001300000013000000EF004012DE
:1000A8006F0000006FF0DFFF130101F8232001004B
:1000B8002322110023242100232631002328410074
:1000C800232A5100232C6100232E71002320810252
:1000D800232291022324A1022326B1022328C1024C
:1000E800232AD102232CE102232EF1022320010529
:1000F8002322110523242105232631052328410520
:10010800232A5105232C6105232E710523208107FD
:10011800232291072324A1072326B1072328C107F7
:10012800232AD107232CE107232EF1077325203436
:10013800F325103413060100EF00801D0320010091
:10014800832041008321C100032201018322410150
:10015800032381018323C101032401028324410273
:10016800032581028325C102032601038326410357
:10017800032781038327C10303280104832841043B
:10018800032981048329C104032A0105832A41051F
:10019800032B8105832BC105032C0106832C410603
:1001A800032D8106832DC106032E0107832E4107E7
:1001B800032F8107832FC107130101087300203023
:1001C800130181FC232A110223288102232691028C
:1001D80013048103930784FC2320F4FE9307C4FCD3
:1001E800232EF4FC930704FD232CF4FC832704FE40
:1001F8001307500023A0E7008327C4FD130760FFFF
:1002080023A0E700832704FE03A707008327C4FD74
:1002180083A707003307F700832784FD23A0E7009F
:10022800B707100093871700232AF4FC930460088B
:100238009300400873A0443073B04030832744FDD6
:100248001307600823A0E70093056008032544FD11
:10025800EF000009930760FF2326F4FE6F000001FA
:100268008327C4FE938717002326F4FE0327C4FEC2
:100278009307301FE3D6E7FE93055004032544FD9A
:10028800EF000006232404FE6F000001832784FE8C
:10029800938717002324F4FE032784FE9307B02BCB
:1002A800E3D6E7FE93056007032544FDEF0040030E
:1002B800232204FE6F000001832744FE9387170062
:1002C8002322F4FE032744FE9307F031E3D6E7FE2A
:1002D8009305300E032544FDEF0080006FF09FF773
:1002E800130101FF2326810013040101232AA4FE20
:1002F8002328B4FE832744FF032704FF23A0E70035
:10030800130000000324C1001301010167800000ED
:10031800130181FE232A810013048101232AA4FEEC
:100328002328B4FE2326C4FE130000000324410141
:08033800130181016780000040
:0400000310000018D1
:00000001FF
