:10001800370180001301F17FEF0080006F000000BE
:10002800130181FC232A110223288102232691022D
:1000380013048103930784FC2320F4FE9307C4FC74
:10004800232EF4FC930704FD232CF4FC832704FEE1
:100058001307500023A0E7008327C4FD130760FFA0
:1000680023A0E700832704FE03A707008327C4FD16
:1000780083A707003307F700832784FD23A0E70041
:10008800B707100093871700232AF4FC832744FD41
:100098001307600823A0E700930460089300400852
:1000A80073A0443073B040309307C0F92326F4FEA0
:1000B8006F0000018327C4FE938717002326F4FEF0
:1000C8000327C4FE93073006E3D6E7FE93055004E2
:1000D800032544FDEF000006232404FE6F00000101
:1000E800832784FE938717002324F4FE032784FEC6
:1000F8009307700CE3D6E7FE93056007032544FDDC
:10010800EF004003232204FE6F000001832744FE12
:10011800938717002322F4FE032744FE9307B012A7
:10012800E3D6E7FE9305300E032544FDEF0080007B
:100138006FF09FF7130101FF2326810013040101CB
:10014800232AA4FE2328B4FE832744FF032704FFA1
:1001580023A0E700130000000324C10013010101DC
:0401680067800000AC
:0400000300000018E1
:00000001FF
