:10001800370180001301F17FEF0080006F000000BE
:10002800130101FD23261102232481021304010375
:1000380093006008930704FD2324F4FE930744FD0E
:100048002322F4FE930784FD2320F4FE832784FEF5
:100058001307500023A0E700832744FE130760FF1F
:1000680023A0E700832784FE03A70700832744FE15
:1000780083A707003307F700832704FE23A0E700C0
:10008800B707100093871700232EF4FC8327C4FDBD
:100098001307600823A0E70073A0403093004008CE
:1000A80013000000130000001300000013000000FC
:1000B800130000001300000073B040309307C0F92C
:1000C800232AF4FE6F000001832744FF938717005B
:1000D800232AF4FE032744FF93073006E3D6E7FEFE
:1000E800930550040325C4FDEF000006232804FEF1
:1000F8006F000001832704FF938717002328F4FE6D
:10010800032704FF9307700CE3D6E7FE9305600707
:100118000325C4FDEF004003232604FE6F00000101
:100128008327C4FE938717002326F4FE0327C4FE03
:100138009307B012E3D6E7FE9305300E0325C4FDFE
:10014800EF0080006FF09FF7130101FF2326810065
:1001580013040101232AA4FE2328B4FE832744FFA5
:10016800032704FF23A0E700130000000324C100B5
:08017800130101016780000082
:0400000300000018E1
:00000001FF
