:1000180013010010EF0080006F000000130181FD44
:100028002322110223208102130481029307001165
:100038002324F4FE930740112322F4FE9307801132
:100048002320F4FE832784FE1307500023A0E70033
:10005800832744FE130760FF23A0E700832784FE5D
:1000680003A70700832744FE83A707003307F70089
:10007800832704FE23A0E700B71700009387170023
:10008800232EF4FC8327C4FD1307600823A0E70090
:100098009307C0F9232AF4FE6F000001832744FF69
:1000A80093871700232AF4FE032744FFB71703009A
:1000B8009387F7D3E3D4E7FE930550040325C4FDE3
:1000C800EF000006232804FE6F000001832704FFC9
:1000D800938717002328F4FE032704FFB79704002B
:1000E8009387F73DE3D4E7FE930560070325C4FD36
:1000F800EF000003232604FE6F0000018327C4FEDF
:10010800938717002326F4FE8327C4FEE3C807FE5F
:100118009305300E0325C4FDEF0080006FF05FF7F4
:10012800130101FF2326810013040101232AA4FEE1
:100138002328B4FE832744FF032704FF23A0E700F6
:10014800130000000324C1001301010167800000AF
:0400000300000018E1
:00000001FF
