:100018001301C007EF0080006F000000130181FD8D
:10002800232211022320810213048102930700076F
:100038002324F4FE930740072322F4FE9307800746
:100048002320F4FE832784FE1307500023A0E70033
:10005800832744FE1307A00023A0E700832784FE1C
:1000680003A70700832744FE83A707003307F70089
:10007800832704FE23A0E700B71700009387170023
:10008800232EF4FC8327C4FD1307600823A0E70090
:10009800232A04FE6F000001832744FF938717007B
:1000A800232AF4FE032744FFB71703009387F7D3E7
:1000B800E3D4E7FE930550040325C4FDEF00800652
:1000C800232804FE6F000001832704FF938717008D
:1000D8002328F4FE032704FFB79704009387F73D0E
:1000E800E3D4E7FE930560070325C4FDEF00800312
:1000F800232604FE6F0000018327C4FE93871700A0
:100108002326F4FE0327C4FEB71703009387F7D30B
:10011800E3D4E7FE9305300E0325C4FDEF0080000D
:100128006FF01FF7130101FF23268100130401015B
:10013800232AA4FE2328B4FE832744FF032704FFB1
:1001480023A0E700130000000324C10013010101EC
:0401580067800000BC
:0400000300000018E1
:00000001FF
