:020000021000EC
:10001800970200009382C20173905230370180002A
:100028001301C11FEF00404A6F000000130101F8DF
:10003800232001002322110023242100232631003C
:1000480023284100232A5100232C6100232E71000C
:1000580023208102232291022324A1022326B10214
:100068002328C102232AD102232CE102232EF102E4
:1000780023200105232211052324210523263105E8
:1000880023284105232A5105232C6105232E7105B8
:1000980023208107232291072324A1072326B107C0
:1000A8002328C107232AD107232CE107232EF10790
:1000B80073252034F325103413060100EF00806601
:1000C80003200100832041008321C1000322010194
:1000D80083224101032381018323C10103240102F7
:1000E80083244102032581028325C10203260103DB
:1000F80083264103032781038327C10303280104BF
:1001080083284104032981048329C104032A0105A2
:10011800832A4105032B8105832BC105032C010686
:10012800832C4106032D8106832DC106032E01076A
:10013800832E4107032F8107832FC107130101086D
:1001480073002030130101FF2326810013040101ED
:10015800232AA4FE032744FF930710006318F7001F
:10016800B7071000938707106F00800093070000FF
:10017800138507000324C1001301010167800000F3
:10018800130101FF2326810013040101232AA4FE81
:10019800832744FF9387870083A7070013F7170077
:1001A800930710006316F700930700006F008000A4
:1001B80093071000138507000324C10013010101F0
:1001C80067800000130181FE232A81001304810146
:1001D800232AA4FE2328B4FE2326C4FE832744FF33
:1001E8009387C7001307600123A0E70013000000EE
:1001F800032441011301810167800000130101FFFD
:100208002326810013040101232AA4FE832744FF27
:100218009387470083A70700138507000324C100BD
:100228001301010167800000130101FF23268100EB
:1002380013040101232AA4FE2328B4FE832744FFC4
:10024800032704FF23A0E700130000000324C100D4
:100258001301010167800000130181FE232A1100A8
:1002680023288100130481012326A4FE2324B4FE3D
:10027800232A04FE6F00C002832744FF032784FE5D
:10028800B307F70083C70700938507000325C4FE5B
:10029800EFF09FF9832744FF93871700232AF4FE82
:1002A800832744FF032784FEB307F70083C70700AB
:1002B800E39407FC130000001300000083204101B1
:1002C800032401011301810167800000130181FEED
:1002D800232A8100130481012326A4FE232A04FE75
:1002E8006F004003232804FE6F000001832704FFEA
:1002F800938717002328F4FE032704FFB71700008D
:1003080093877738E3D4E7FE832744FF9387170062
:10031800232AF4FE032744FF8327C4FEE344F7FCA3
:1003280013000000130000000324410113018101A0
:1003380067800000130101FF2326810013040101D7
:10034800232AA4FE032744FF930710006318F7002D
:10035800B7071000938707206F00800093070000FD
:10036800138507000324C100130101016780000001
:10037800130101FF2326810013040101232AA4FE8F
:10038800832744FF83A7070013F71700930710007C
:100398006316F700930700006F00800093071000B2
:1003A800138507000324C1001301010167800000C1
:1003B800130101FF2326810013040101232AA4FE4F
:1003C8002328B4FE832744FF93878700032704FF6D
:1003D80023A0E700130000000324C100130101015A
:1003E80067800000130101FF232681001304010127
:1003F800232AA4FE832744FF9387470003A7070007
:10040800832744FF938747001367170023A0E7005B
:10041800130000000324C1001301010167800000DC
:10042800130101FF2326810013040101232AA4FEDE
:10043800832744FF9387470083A7070013E7E7FF55
:10044800832744FF9387470023A0E7001300000099
:100458000324C1001301010167800000130101FF9B
:100468002326810013040101232AA4FE832744FFC5
:10047800938747001307F00023A0E700130000004C
:100488000324C1001301010167800000130101FF6B
:100498002326810013040101232AA4FE832744FF95
:1004A8009387470003A70700832744FF93874700E4
:1004B800137707FF23A0E700130000000324C100FF
:1004C8001301010167800000130101FD23261102B9
:1004D8002324810213040103930704FE232AF4FE54
:1004E800930744FE2328F4FE930784FE2326F4FE94
:1004F800832744FF1307500023A0E700832704FF46
:10050800130760FF23A0E700832744FF03A7070022
:10051800832704FF83A707009385070013050700B7
:10052800EF00C02593070500138707008327C4FE43
:1005380023A0E700832704FF03A70700832744FFBE
:1005480083A707009385070013050700EF004025E0
:1005580093070500138707008327C4FE23A0E7003D
:1005680013051000EFF01FDD13070500B707800023
:1005780023A4E700B707800003A78700B737310136
:10058800938507D013050700EFF09FE2B7078000B7
:1005980083A7870013850700EFF05FECB70780009B
:1005A800370710001307470023A0E70013051000C2
:1005B800EFF05FB913070500B707800023A2E70033
:1005C800B707800003A74700B7F7FA0213860708A2
:1005D800B72700009385075813050700EFF09FBE63
:1005E80093076008232CF4FC93074008232AF4FCA3
:1005F800832784FD73A04730832744FD73B04730B9
:10060800B707800083A707001307600823A0E70047
:10061800B707800083A707009305600813850700C4
:10062800EF00400DB707800003A74700B717010088
:100638009385C78513050700EFF01FC2B707800031
:1006480083A7470013850700EFF09FB31307050042
:1006580093071000E314F7FEB707800083A747004D
:1006680013850700EFF09FB993070500232EF4FCCC
:10067800B707800083A747000327C4FD9305070039
:1006880013850700EFF05FBA0327C4FD930720071F
:10069800631EF700B707800083A707009305600073
:1006A80013850700EF0000056FF05FF90327C4FD0D
:1006B80093077006631EF700B707800083A707003B
:1006C8009305500013850700EF00C0026FF01FF775
:1006D8000327C4FD93072006E312F7F6B707800047
:1006E80083A707009305300013850700EF008000FB
:1006F8006FF0DFF4130101FF2326810013040101C9
:10070800232AA4FE2328B4FE832744FF032704FFDB
:1007180023A0E700130000000324C1001301010116
:1007280067800000130181FE232A810013048101E0
:10073800232AA4FE2328B4FE2326C4FEB70780007C
:1007480083A7070083A70700639C0700B7078000FB
:1007580083A707001307F00F23A0E7006F0000012D
:10076800B707800083A7070023A007001300000035
:10077800032441011301810167800000130605006D
:100788001305000093F61500638406003305C500C1
:1007980093D5150013161600E39605FE6780000032
:1007A8006340050663C60506138605009305050024
:1007B8001305F0FF630C060293061000637AB60077
:1007C8006358C0001316160093961600E36AB6FE27
:1007D8001305000063E6C500B385C5403365D50041
:1007E80093D6160013561600E39606FE678000009F
:1007F80093820000EFF05FFB13850500678002001D
:100808003305A0406348B000B305B0406FF0DFF98E
:10081800B305B04093820000EFF01FF93305A04004
:10082800678002009382000063CA0500634C0500DC
:10083800EFF09FF71385050067800200B305B0400D
:10084800E35805FE3305A040EFF01FF63305B0402E
:100858006780020041554B2D5620736179732048FB
:090868006969696969210D0A0042
:0400000310000018D1
:00000001FF
