:020000021000EC
:10001800970200009382C20173905230370180002A
:100028001301C11FEF00404A6F000000130101F8DF
:10003800232001002322110023242100232631003C
:1000480023284100232A5100232C6100232E71000C
:1000580023208102232291022324A1022326B10214
:100068002328C102232AD102232CE102232EF102E4
:1000780023200105232211052324210523263105E8
:1000880023284105232A5105232C6105232E7105B8
:1000980023208107232291072324A1072326B107C0
:1000A8002328C107232AD107232CE107232EF10790
:1000B80073252034F325103413060100EF00806601
:1000C80003200100832041008321C1000322010194
:1000D80083224101032381018323C10103240102F7
:1000E80083244102032581028325C10203260103DB
:1000F80083264103032781038327C10303280104BF
:1001080083284104032981048329C104032A0105A2
:10011800832A4105032B8105832BC105032C010686
:10012800832C4106032D8106832DC106032E01076A
:10013800832E4107032F8107832FC107130101086D
:1001480073002030130101FE232E810013040102E5
:100158002326A4FE0327C4FE930710006318F700A4
:10016800B7071000938707106F00800093070000FF
:10017800138507000324C1011301010267800000F1
:10018800130101FE232E8100130401022326A4FE7D
:100198008327C4FE9387870083A7070013F71700F8
:1001A800930710006316F700930700006F008000A4
:1001B80093071000138507000324C10113010102EE
:1001C80067800000130101FE232E81001304010241
:1001D8002326A4FE2324B4FE2322C4FE8327C4FEC0
:1001E8009387C7001307600123A0E70013000000EE
:1001F8000324C1011301010267800000130101FEFD
:10020800232E8100130401022326A4FE8327C4FEA3
:100218009387470083A70700138507000324C101BC
:100228001301010267800000130101FE232E8100E3
:10023800130401022326A4FE2324B4FE8327C4FE4C
:10024800032784FE23A0E700130000000324C10154
:100258001301010267800000130101FD232611022A
:100268002324810213040103232EA4FC232CB4FCB1
:10027800232604FE6F00C0028327C4FE032784FDE3
:10028800B307F70083C70700938507000325C4FD5C
:10029800EFF09FF98327C4FE938717002326F4FE07
:1002A8008327C4FE032784FDB307F70083C707002D
:1002B800E39407FC13000000130000008320C10230
:1002C800032481021301010367800000130101FD6B
:1002D8002326810213040103232EA4FC232604FEF3
:1002E8006F004003232404FE6F000001832784FE6F
:1002F800938717002324F4FE032784FEB717000012
:1003080093877738E3D4E7FE8327C4FE93871700E3
:100318002326F4FE0327C4FE8327C4FDE344F7FC29
:1003280013000000130000000324C102130101039D
:1003380067800000130101FE232E810013040102CF
:100348002326A4FE0327C4FE930710006318F700B2
:10035800B7071000938707206F00800093070000FD
:10036800138507000324C1011301010267800000FF
:10037800130101FE232E8100130401022326A4FE8B
:100388008327C4FE83A7070013F7170093071000FD
:100398006316F700930700006F00800093071000B2
:1003A800138507000324C1011301010267800000BF
:1003B800130101FE232E8100130401022326A4FE4B
:1003C8002324B4FE8327C4FE93878700032784FE73
:1003D80023A0E700130000000324C1011301010258
:1003E80067800000130101FE232E8100130401021F
:1003F8002326A4FE8327C4FE9387470003A707008C
:100408008327C4FE938747001367170023A0E700DC
:10041800130000000324C1011301010267800000DA
:10042800130101FE232E8100130401022326A4FEDA
:100438008327C4FE9387470083A7070013E7E7FFD6
:100448008327C4FE9387470023A0E700130000001A
:100458000324C1011301010267800000130101FE9A
:10046800232E8100130401022326A4FE8327C4FE41
:10047800938747001307F00023A0E700130000004C
:100488000324C1011301010267800000130101FE6A
:10049800232E8100130401022326A4FE8327C4FE11
:1004A8009387470003A707008327C4FE9387470065
:1004B800137707FF23A0E700130000000324C101FE
:1004C8001301010267800000130101FC232E1102B1
:1004D800232C810213040104930784FD2326F4FED0
:1004E8009307C4FD2324F4FE930704FE2322F4FE9D
:1004F8008327C4FE1307500023A0E700832784FE48
:10050800130760FF23A0E7008327C4FE03A70700A3
:10051800832784FE83A70700938507001305070038
:10052800EF00C0259307050013870700832744FEC3
:1005380023A0E700832784FE03A707008327C4FEC0
:1005480083A707009385070013050700EF004025E0
:100558009307050013870700832744FE23A0E700BD
:1005680013051000EFF01FDD13070500B707800023
:1005780023A4E700B707800003A78700B737310136
:10058800938507D013050700EFF09FE2B7078000B7
:1005980083A7870013850700EFF05FECB70780009B
:1005A800370710001307470023A0E70013051000C2
:1005B800EFF05FB913070500B707800023A2E70033
:1005C800B707800003A74700B7F7FA0213860708A2
:1005D800B72700009385075813050700EFF09FBE63
:1005E800930760082328F4FC930740082326F4FCAB
:1005F800832704FD73A047308327C4FC73B04730BA
:10060800B707800083A707001307600823A0E70047
:10061800B707800083A707009305600813850700C4
:10062800EF00400DB707800003A74700B717010088
:100638009385C78513050700EFF01FC2B707800031
:1006480083A7470013850700EFF09FB31307050042
:1006580093071000E314F7FEB707800083A747004D
:1006680013850700EFF09FB993070500232AF4FCD0
:10067800B707800083A74700032744FD93050700B9
:1006880013850700EFF05FBA032744FD930720079F
:10069800631EF700B707800083A707009305600073
:1006A80013850700EF0000056FF05FF9032744FD8D
:1006B80093077006631EF700B707800083A707003B
:1006C8009305500013850700EF00C0026FF01FF775
:1006D800032744FD93072006E312F7F6B7078000C7
:1006E80083A707009305300013850700EF008000FB
:1006F8006FF0DFF4130101FE232E810013040102C1
:100708002326A4FE2324B4FE8327C4FE032784FEE5
:1007180023A0E700130000000324C1011301010214
:1007280067800000130101FE232E810013040102DB
:100738002326A4FE2324B4FE2322C4FEB707800088
:1007480083A7070083A70700639C0700B7078000FB
:1007580083A707001307F00F23A0E7006F0000012D
:10076800B707800083A7070023A007001300000035
:100778000324C1011301010267800000130605006C
:100788001305000093F61500638406003305C500C1
:1007980093D5150013161600E39605FE6780000032
:1007A8006340050663C60506138605009305050024
:1007B8001305F0FF630C060293061000637AB60077
:1007C8006358C0001316160093961600E36AB6FE27
:1007D8001305000063E6C500B385C5403365D50041
:1007E80093D6160013561600E39606FE678000009F
:1007F80093820000EFF05FFB13850500678002001D
:100808003305A0406348B000B305B0406FF0DFF98E
:10081800B305B04093820000EFF01FF93305A04004
:10082800678002009382000063CA0500634C0500DC
:10083800EFF09FF71385050067800200B305B0400D
:10084800E35805FE3305A040EFF01FF63305B0402E
:100858006780020041554B2D5620736179732048FB
:090868006969696969210D0A0042
:0400000310000018D1
:00000001FF
