:020000021000EC
:10001800970200009382C20173905230370180002A
:100028001301C11FEF00404A6F000000130101F8DF
:10003800232001002322110023242100232631003C
:1000480023284100232A5100232C6100232E71000C
:1000580023208102232291022324A1022326B10214
:100068002328C102232AD102232CE102232EF102E4
:1000780023200105232211052324210523263105E8
:1000880023284105232A5105232C6105232E7105B8
:1000980023208107232291072324A1072326B107C0
:1000A8002328C107232AD107232CE107232EF10790
:1000B80073252034F325103413060100EF00805A0D
:1000C80003200100832041008321C1000322010194
:1000D80083224101032381018323C10103240102F7
:1000E80083244102032581028325C10203260103DB
:1000F80083264103032781038327C10303280104BF
:1001080083284104032981048329C104032A0105A2
:10011800832A4105032B8105832BC105032C010686
:10012800832C4106032D8106832DC106032E01076A
:10013800832E4107032F8107832FC107130101086D
:1001480073002030130101FF2326810013040101ED
:10015800232AA4FE032744FF930710006318F7001F
:10016800B7071000938707106F00800093070000FF
:10017800138507000324C1001301010167800000F3
:10018800130101FF2326810013040101232AA4FE81
:10019800832744FF9387870083A7070013F7170077
:1001A800930710006316F700930700006F008000A4
:1001B80093071000138507000324C10013010101F0
:1001C80067800000130181FE232A81001304810146
:1001D800232AA4FE2328B4FE2326C4FE832744FF33
:1001E8009387C7001307600123A0E70013000000EE
:1001F800032441011301810167800000130101FFFD
:100208002326810013040101232AA4FE832744FF27
:100218009387470083A70700138507000324C100BD
:100228001301010167800000130101FF23268100EB
:1002380013040101232AA4FE2328B4FE832744FFC4
:10024800032704FF23A0E700130000000324C100D4
:100258001301010167800000130181FE232A1100A8
:1002680023288100130481012326A4FE2324B4FE3D
:10027800232A04FE6F00C002832744FF032784FE5D
:10028800B307F70083C70700938507000325C4FE5B
:10029800EFF09FF9832744FF93871700232AF4FE82
:1002A800832744FF032784FEB307F70083C70700AB
:1002B800E39407FC130000001300000083204101B1
:1002C800032401011301810167800000130181FEED
:1002D800232A8100130481012326A4FE232A04FE75
:1002E8006F004003232804FE6F000001832704FFEA
:1002F800938717002328F4FE032704FFB71700008D
:1003080093877738E3D4E7FE832744FF9387170062
:10031800232AF4FE032744FF8327C4FEE344F7FCA3
:1003280013000000130000000324410113018101A0
:1003380067800000130101FF2326810013040101D7
:10034800232AA4FE032744FF930710006318F7002D
:10035800B7071000938707206F00800093070000FD
:10036800138507000324C100130101016780000001
:10037800130101FF2326810013040101232AA4FE8F
:10038800832744FF83A7070013F71700930710007C
:100398006316F700930700006F00800093071000B2
:1003A800138507000324C1001301010167800000C1
:1003B800130101FF2326810013040101232AA4FE4F
:1003C8002328B4FE832744FF93878700032704FF6D
:1003D80023A0E700130000000324C100130101015A
:1003E80067800000130101FF232681001304010127
:1003F800232AA4FE832744FF9387470003A7070007
:10040800832744FF938747001367170023A0E7005B
:10041800130000000324C1001301010167800000DC
:10042800130101FF2326810013040101232AA4FEDE
:10043800832744FF9387470083A7070013E7E7FF55
:10044800832744FF9387470023A0E7001300000099
:100458000324C1001301010167800000130101FF9B
:100468002326810013040101232AA4FE832744FFC5
:10047800938747001307F00023A0E700130000004C
:100488000324C1001301010167800000130101FF6B
:100498002326810013040101232AA4FE832744FF95
:1004A8009387470003A70700832744FF93874700E4
:1004B800137707FF23A0E700130000000324C100FF
:1004C8001301010167800000130181FC232A110236
:1004D800232881022326910213048103930784FCB5
:1004E8002326F4FE9307C4FC2324F4FE930704FD9B
:1004F8002322F4FE13051000EFF0DFE32320A4FE0F
:10050800B7373101938507D0032504FEEFF05FEA82
:10051800032504FEEFF09FF48327C4FE1307500061
:1005280023A0E700832784FE130760FF23A0E700CA
:100538008327C4FE03A70700832784FE83A7070039
:100548003307F740832744FE23A0E700B7071000CE
:1005580093874700232EF4FC13051000EFF09FBE8D
:10056800232CA4FCB7F7FA0213860708B727000064
:1005780093850758032584FDEFF0DFC493046008D2
:100588009300400873A0443073B040308327C4FD03
:100598001307600823A0E700930560080325C4FD3E
:1005A800EF004009B70701009385476C032584FDD8
:1005B800EFF09FCA032584FDEFF09FBC13070500E9
:1005C80093071000E318F7FE032584FDEFF01FC31F
:1005D800232AA4FC832544FD032584FDEFF0DFC412
:1005E800032744FD93072007631AF700930560006B
:1005F8000325C4FDEF0000046FF0DFFB032744FD73
:1006080093077006631AF700930550000325C4FD8D
:10061800EF0040026FF01FFA032744FD93072006FE
:10062800E31AF7F8930530000325C4FDEF008000B6
:100638006FF05FF8130101FF232681001304010105
:10064800232AA4FE2328B4FE832744FF032704FF9C
:1006580023A0E700130000000324C10013010101D7
:1006680067800000130101FE232E8100130401029C
:100678002326A4FE2324B4FE2322C4FEB7071000B9
:1006880093874700232AF4FE832744FF83A70700A4
:10069800639A0700832744FF1307F00F23A0E7009E
:1006A8006F00C000832744FF23A007001300000049
:0C06B8000324C10113010102678000004F
:1006C40041554B2D562073617973204869696969D6
:0506D40069210D0A0080
:0400000310000018D1
:00000001FF
