:020000021000EC
:10001800970200009382C20173905230370180002A
:100028001301C11FEF0000316F000000130101F838
:10003800232001002322110023242100232631003C
:1000480023284100232A5100232C6100232E71000C
:1000580023208102232291022324A1022326B10214
:100068002328C102232AD102232CE102232EF102E4
:1000780023200105232211052324210523263105E8
:1000880023284105232A5105232C6105232E7105B8
:1000980023208107232291072324A1072326B107C0
:1000A8002328C107232AD107232CE107232EF10790
:1000B80073252034F325103413060100EF00003FA8
:1000C80003200100832041008321C1000322010194
:1000D80083224101032381018323C10103240102F7
:1000E80083244102032581028325C10203260103DB
:1000F80083264103032781038327C10303280104BF
:1001080083284104032981048329C104032A0105A2
:10011800832A4105032B8105832BC105032C010686
:10012800832C4106032D8106832DC106032E01076A
:10013800832E4107032F8107832FC107130101086D
:1001480073002030130101FF2326810013040101ED
:10015800232AA4FE032744FF930710006318F7001F
:10016800B7071000938707106F00800093070000FF
:10017800138507000324C1001301010167800000F3
:10018800130101FF2326810013040101232AA4FE81
:10019800832744FF9387870083A7070013F7170077
:1001A800930710006316F700930700006F008000A4
:1001B80093071000138507000324C10013010101F0
:1001C80067800000130181FE232A81001304810146
:1001D800232AA4FE2328B4FE2326C4FE832744FF33
:1001E8009387C7001307600123A0E70013000000EE
:1001F800032441011301810167800000130101FFFD
:100208002326810013040101232AA4FE832744FF27
:100218009387470083A70700138507000324C100BD
:100228001301010167800000130101FF23268100EB
:1002380013040101232AA4FE2328B4FE832744FFC4
:10024800032704FF23A0E700130000000324C100D4
:100258001301010167800000130181FE232A1100A8
:1002680023288100130481012326A4FE2324B4FE3D
:10027800232A04FE6F00C002832744FF032784FE5D
:10028800B307F70083C70700938507000325C4FE5B
:10029800EFF09FF9832744FF93871700232AF4FE82
:1002A800832744FF032784FEB307F70083C70700AB
:1002B800E39407FC130000001300000083204101B1
:1002C800032401011301810167800000130181FEED
:1002D800232A8100130481012326A4FE232A04FE75
:1002E8006F004003232804FE6F000001832704FFEA
:1002F800938717002328F4FE032704FFB71700008D
:1003080093877738E3D4E7FE832744FF9387170062
:10031800232AF4FE032744FF8327C4FEE344F7FCA3
:1003280013000000130000000324410113018101A0
:1003380067800000130181FC232A1102232881020F
:1003480023269102130481039307C4FC2326F4FE99
:10035800930704FD2324F4FE930744FD2322F4FEAF
:100368008327C4FE1307500023A0E700832784FED9
:10037800130760FF23A0E7008327C4FE03A7070035
:10038800832784FE83A707003307F740832744FEAB
:1003980023A0E700B7071000938747002320F4FE47
:1003A80013051000EFF01FDA232EA4FCB7F7FA02AA
:1003B80013860708B7270000938507580325C4FD4F
:1003C800EFF05FE0930460089300400873A04430A6
:1003D80073B04030832704FE1307600823A0E700AA
:1003E80093056008032504FEEF004009B7070100E4
:1003F8009385C74D0325C4FDEFF01FE60325C4FD13
:10040800EFF01FD81307050093071000E318F7FE55
:100418000325C4FDEFF09FDE232CA4FC832584FD77
:100428000325C4FDEFF05FE0032784FD9307200751
:10043800631AF70093056000032504FEEF0000042B
:100448006FF0DFFB032784FD93077006631AF7003C
:1004580093055000032504FEEF0040026FF01FFAD9
:10046800032784FD93072006E31AF7F89305300065
:10047800032504FEEF0080006FF05FF8130101FF11
:100488002326810013040101232AA4FE2328B4FE95
:10049800832744FF032704FF23A0E700130000007D
:1004A8000324C1001301010167800000130181FECC
:1004B800232A810013048101232AA4FE2328B4FEE1
:1004C8002326C4FE13000000032441011301810107
:0404D8006780000039
:1004DC0041554B2D562073617973204869696969C0
:0504EC0069210D0A006A
:0400000310000018D1
:00000001FF
