:020000021000EC
:10001800970200009382C20173905230370180002A
:100028001301C11FEF00404A6F000000130101F8DF
:10003800232001002322110023242100232631003C
:1000480023284100232A5100232C6100232E71000C
:1000580023208102232291022324A1022326B10214
:100068002328C102232AD102232CE102232EF102E4
:1000780023200105232211052324210523263105E8
:1000880023284105232A5105232C6105232E7105B8
:1000980023208107232291072324A1072326B107C0
:1000A8002328C107232AD107232CE107232EF10790
:1000B80073252034F325103413060100EF00806106
:1000C80003200100832041008321C1000322010194
:1000D80083224101032381018323C10103240102F7
:1000E80083244102032581028325C10203260103DB
:1000F80083264103032781038327C10303280104BF
:1001080083284104032981048329C104032A0105A2
:10011800832A4105032B8105832BC105032C010686
:10012800832C4106032D8106832DC106032E01076A
:10013800832E4107032F8107832FC107130101086D
:1001480073002030130101FF2326810013040101ED
:10015800232AA4FE032744FF930710006318F7001F
:10016800B7071000938707106F00800093070000FF
:10017800138507000324C1001301010167800000F3
:10018800130101FF2326810013040101232AA4FE81
:10019800832744FF9387870083A7070013F7170077
:1001A800930710006316F700930700006F008000A4
:1001B80093071000138507000324C10013010101F0
:1001C80067800000130181FE232A81001304810146
:1001D800232AA4FE2328B4FE2326C4FE832744FF33
:1001E8009387C7001307600123A0E70013000000EE
:1001F800032441011301810167800000130101FFFD
:100208002326810013040101232AA4FE832744FF27
:100218009387470083A70700138507000324C100BD
:100228001301010167800000130101FF23268100EB
:1002380013040101232AA4FE2328B4FE832744FFC4
:10024800032704FF23A0E700130000000324C100D4
:100258001301010167800000130181FE232A1100A8
:1002680023288100130481012326A4FE2324B4FE3D
:10027800232A04FE6F00C002832744FF032784FE5D
:10028800B307F70083C70700938507000325C4FE5B
:10029800EFF09FF9832744FF93871700232AF4FE82
:1002A800832744FF032784FEB307F70083C70700AB
:1002B800E39407FC130000001300000083204101B1
:1002C800032401011301810167800000130181FEED
:1002D800232A8100130481012326A4FE232A04FE75
:1002E8006F004003232804FE6F000001832704FFEA
:1002F800938717002328F4FE032704FFB71700008D
:1003080093877738E3D4E7FE832744FF9387170062
:10031800232AF4FE032744FF8327C4FEE344F7FCA3
:1003280013000000130000000324410113018101A0
:1003380067800000130101FF2326810013040101D7
:10034800232AA4FE032744FF930710006318F7002D
:10035800B7071000938707206F00800093070000FD
:10036800138507000324C100130101016780000001
:10037800130101FF2326810013040101232AA4FE8F
:10038800832744FF83A7070013F71700930710007C
:100398006316F700930700006F00800093071000B2
:1003A800138507000324C1001301010167800000C1
:1003B800130101FF2326810013040101232AA4FE4F
:1003C8002328B4FE832744FF93878700032704FF6D
:1003D80023A0E700130000000324C100130101015A
:1003E80067800000130101FF232681001304010127
:1003F800232AA4FE832744FF9387470003A7070007
:10040800832744FF938747001367170023A0E7005B
:10041800130000000324C1001301010167800000DC
:10042800130101FF2326810013040101232AA4FEDE
:10043800832744FF9387470083A7070013E7E7FF55
:10044800832744FF9387470023A0E7001300000099
:100458000324C1001301010167800000130101FF9B
:100468002326810013040101232AA4FE832744FFC5
:10047800938747001307F00023A0E700130000004C
:100488000324C1001301010167800000130101FF6B
:100498002326810013040101232AA4FE832744FF95
:1004A8009387470003A70700832744FF93874700E4
:1004B800137707FF23A0E700130000000324C100FF
:1004C8001301010167800000130101FD23261102B9
:1004D800232481022322910213040103930744FD7C
:1004E8002326F4FE930784FD2324F4FE9307C4FD1A
:1004F8002322F4FE13051000EFF0DFE313070500D5
:10050800B707800023A4E700B707800003A7870088
:10051800B7373101938507D013050700EFF05FE97E
:10052800B707800083A7870013850700EFF01FF344
:100538008327C4FE1307500023A0E700832784FE07
:10054800130760FF23A0E7008327C4FE03A7070063
:10055800832784FE83A707003307F740832744FED9
:1005680023A0E700B70780003707100013074700EC
:1005780023A0E70013051000EFF0DFBC1307050008
:10058800B707800023A2E700B707800003A747004A
:10059800B7F7FA0213860708B727000093850758AC
:1005A80013050700EFF01FC293046008930040088A
:1005B80073A0443073B04030B707800083A70700AA
:1005C8001307600823A0E700B707800083A7070088
:1005D8009305600813850700EF00C00CB70780007B
:1005E80003A74700B7070100938547731305070062
:1005F800EFF09FC6B707800083A747001385070061
:10060800EFF01FB81307050093071000E314F7FE77
:10061800B707800083A7470013850700EFF01FBEC8
:100628002320A4FEB707800083A74700832504FE84
:1006380013850700EFF05FBF032704FE9307200729
:10064800631EF700B707800083A7070093056000C3
:1006580013850700EF0000056FF0DFF9032704FE9C
:1006680093077006631EF700B707800083A707008B
:100678009305500013850700EF00C0026FF09FF745
:10068800032704FE93072006E316F7F6B707800052
:1006980083A707009305300013850700EF0080004B
:1006A8006FF05FF5130101FF232681001304010198
:1006B800232AA4FE2328B4FE832744FF032704FF2C
:1006C80023A0E700130000000324C1001301010167
:1006D80067800000130181FE232A81001304810131
:1006E800232AA4FE2328B4FE2326C4FEB7078000CD
:1006F80083A7070083A70700639C0700B70780004C
:1007080083A707001307F00F23A0E7006F0000017D
:10071800B707800083A7070023A007001300000085
:1007280003244101130181016780000041554B2DCD
:1007380056207361797320486969696969210D0ACE
:0107480000B0
:0400000310000018D1
:00000001FF
