:020000021000EC
:10001800370180001301C11F1307000D13071700D4
:100028009300000C2320E100832701009387170029
:10003800232EF1FE0327C1FF232CE1FE130181FCCF
:10004800232A1102232811022326E1021304810323
:10005800930784FC2320F4FE9307C4FCB70702022D
:10006800938727202324F102B707030393873730A8
:100078002314F102B7070404938747402304F102CD
:10008800834781028357810283278102B75734123D
:10009800938787671308F00013F7070F33F70701F3
:1000A80013000000130000001300000013000000FC
:1000B80013000000130000001300000013000000EC
:1000C80013000000130000001300000013000000DC
:1000D80013000000130000001300000013000000CC
:1000E800EF0040126F0000006FF0DFFF130101F80E
:1000F800232001002322110023242100232631007C
:1001080023284100232A5100232C6100232E71004B
:1001180023208102232291022324A1022326B10253
:100128002328C102232AD102232CE102232EF10223
:100138002320010523221105232421052326310527
:1001480023284105232A5105232C6105232E7105F7
:1001580023208107232291072324A1072326B107FF
:100168002328C107232AD107232CE107232EF107CF
:1001780073252034F325103413060100EF000033F3
:1001880003200100832041008321C10003220101D3
:1001980083224101032381018323C1010324010236
:1001A80083244102032581028325C102032601031A
:1001B80083264103032781038327C10303280104FE
:1001C80083284104032981048329C104032A0105E2
:1001D800832A4105032B8105832BC105032C0106C6
:1001E800832C4106032D8106832DC106032E0107AA
:1001F800832E4107032F8107832FC10713010108AD
:1002080073002030130181FC232A11022328810264
:1002180023269102130481039307C4FC2326F4FECA
:10022800930704FD2324F4FE930744FD2322F4FEE0
:100238008327C4FE1307500023A0E700832784FE0A
:10024800130760FF23A0E7008327C4FE03A7070066
:10025800832784FE83A707003307F740832744FEDC
:1002680023A0E700B7071000938717002320F4FEA8
:1002780013051000EF00800B232EA4FCB7F7FA0239
:1002880013860708B7270000938507580325C4FD80
:10029800EF008011930460089300400873A0443075
:1002A80073B04030832704FE1307600823A0E700DB
:1002B80093056008032504FEEF004004B70701001A
:1002C8009385C75A0325C4FDEF0000170325C4FD15
:1002D800EF0080091307050093071000E318F7FEE5
:1002E8000325C4FDEF00C00F232CA4FC832584FD47
:1002F8000325C4FDEF0040116FF05FFD130101FFFE
:100308002326810013040101232AA4FE2328B4FE16
:10031800832744FF032704FF23A0E70013000000FE
:100328000324C1001301010167800000130101FFCC
:100338002326810013040101232AA4FE032744FF76
:10034800930710006318F700B7071000938707108A
:100358006F00800093070000138507000324C10085
:100368001301010167800000130101FF23268100AA
:1003780013040101232AA4FE832744FF93878700DF
:1003880083A7070093F71700638607009307000009
:100398006F00800093071000138507000324C10035
:1003A8001301010167800000130181FE232A8100E7
:1003B80013048101232AA4FE2328B4FE2326C4FEA5
:1003C800832744FF9387C7001307B00123A0E700E2
:1003D800130000000324410113018101678000001C
:1003E800130101FF2326810013040101232AA4FE1F
:1003F800832744FF83A74700138507000324C10010
:100408001301010167800000130101FF2326810009
:1004180013040101232AA4FE2328B4FE832744FFE2
:10042800032704FF23A0E700130000000324C100F2
:100438001301010167800000130181FE232A1100C6
:1004480023288100130481012326A4FE2324B4FE5B
:10045800232A04FE6F00C002832744FF032784FE7B
:10046800B307F70083C70700938507000325C4FE79
:10047800EFF09FF9832744FF93871700232AF4FEA0
:10048800832744FF032784FEB307F70083C70700C9
:10049800E39407FC130000001300000083204101CF
:1004A800032401011301810167800000130181FE0B
:1004B800232A810013048101232AA4FE2328B4FEE1
:1004C8002326C4FE13000000032441011301810107
:1004D80067800000130181FE232A81001304810133
:1004E8002326A4FE2324B4FE232A04FE232804FE84
:1004F800232A04FE6F000002032704FF832784FEDB
:10050800B307F7002328F4FE832744FF93871700D7
:10051800232AF4FE032744FF8327C4FEE34EF7FC97
:10052800832704FF13850700032441011301810178
:1005380067800000130181FE232A810013048101D2
:100548002326A4FE2324B4FE232A04FE232804FE23
:10055800832784FE63960700930700006F008003DB
:100568008327C4FE232AF4FE6F000002832704FFBA
:10057800938717002328F4FE032744FF832784FE6C
:10058800B307F740232AF4FE832744FFE340F0FE35
:10059800832704FF13850700032441011301810108
:0405A8006780000068
:1005AC0041554B2D562073617973204869696969EF
:0505BC0069210D0A0099
:0400000310000018D1
:00000001FF
